{
  "address": "0x1bc0aE8e47a1e23DfBdBB400436Df14724406981",
  "abi": [
    {
      "inputs": [
        {
          "internalType": "address",
          "name": "_VRFCoordinator",
          "type": "address"
        },
        {
          "internalType": "address",
          "name": "_linkToken",
          "type": "address"
        },
        {
          "internalType": "bytes32",
          "name": "_keyHash",
          "type": "bytes32"
        }
      ],
      "stateMutability": "nonpayable",
      "type": "constructor"
    },
    {
      "anonymous": false,
      "inputs": [
        {
          "indexed": true,
          "internalType": "address",
          "name": "owner",
          "type": "address"
        },
        {
          "indexed": true,
          "internalType": "address",
          "name": "approved",
          "type": "address"
        },
        {
          "indexed": true,
          "internalType": "uint256",
          "name": "tokenId",
          "type": "uint256"
        }
      ],
      "name": "Approval",
      "type": "event"
    },
    {
      "anonymous": false,
      "inputs": [
        {
          "indexed": true,
          "internalType": "address",
          "name": "owner",
          "type": "address"
        },
        {
          "indexed": true,
          "internalType": "address",
          "name": "operator",
          "type": "address"
        },
        {
          "indexed": false,
          "internalType": "bool",
          "name": "approved",
          "type": "bool"
        }
      ],
      "name": "ApprovalForAll",
      "type": "event"
    },
    {
      "anonymous": false,
      "inputs": [
        {
          "indexed": true,
          "internalType": "address",
          "name": "_minter",
          "type": "address"
        },
        {
          "indexed": true,
          "internalType": "uint256",
          "name": "_tokenID",
          "type": "uint256"
        },
        {
          "indexed": false,
          "internalType": "uint256",
          "name": "randomness",
          "type": "uint256"
        }
      ],
      "name": "Mint",
      "type": "event"
    },
    {
      "anonymous": false,
      "inputs": [
        {
          "indexed": true,
          "internalType": "address",
          "name": "previousOwner",
          "type": "address"
        },
        {
          "indexed": true,
          "internalType": "address",
          "name": "newOwner",
          "type": "address"
        }
      ],
      "name": "OwnershipTransferred",
      "type": "event"
    },
    {
      "anonymous": false,
      "inputs": [
        {
          "indexed": true,
          "internalType": "address",
          "name": "from",
          "type": "address"
        },
        {
          "indexed": true,
          "internalType": "address",
          "name": "to",
          "type": "address"
        },
        {
          "indexed": true,
          "internalType": "uint256",
          "name": "tokenId",
          "type": "uint256"
        }
      ],
      "name": "Transfer",
      "type": "event"
    },
    {
      "inputs": [],
      "name": "LINK_token",
      "outputs": [
        {
          "internalType": "contract IERC20",
          "name": "",
          "type": "address"
        }
      ],
      "stateMutability": "view",
      "type": "function"
    },
    {
      "inputs": [
        {
          "internalType": "address",
          "name": "to",
          "type": "address"
        },
        {
          "internalType": "uint256",
          "name": "tokenId",
          "type": "uint256"
        }
      ],
      "name": "approve",
      "outputs": [],
      "stateMutability": "nonpayable",
      "type": "function"
    },
    {
      "inputs": [
        {
          "internalType": "address",
          "name": "owner",
          "type": "address"
        }
      ],
      "name": "balanceOf",
      "outputs": [
        {
          "internalType": "uint256",
          "name": "",
          "type": "uint256"
        }
      ],
      "stateMutability": "view",
      "type": "function"
    },
    {
      "inputs": [],
      "name": "claim",
      "outputs": [
        {
          "internalType": "bytes32",
          "name": "requestId",
          "type": "bytes32"
        }
      ],
      "stateMutability": "nonpayable",
      "type": "function"
    },
    {
      "inputs": [
        {
          "internalType": "uint256",
          "name": "tokenId",
          "type": "uint256"
        }
      ],
      "name": "getApproved",
      "outputs": [
        {
          "internalType": "address",
          "name": "",
          "type": "address"
        }
      ],
      "stateMutability": "view",
      "type": "function"
    },
    {
      "inputs": [
        {
          "internalType": "address",
          "name": "owner",
          "type": "address"
        },
        {
          "internalType": "address",
          "name": "operator",
          "type": "address"
        }
      ],
      "name": "isApprovedForAll",
      "outputs": [
        {
          "internalType": "bool",
          "name": "",
          "type": "bool"
        }
      ],
      "stateMutability": "view",
      "type": "function"
    },
    {
      "inputs": [],
      "name": "name",
      "outputs": [
        {
          "internalType": "string",
          "name": "",
          "type": "string"
        }
      ],
      "stateMutability": "view",
      "type": "function"
    },
    {
      "inputs": [],
      "name": "owner",
      "outputs": [
        {
          "internalType": "address",
          "name": "",
          "type": "address"
        }
      ],
      "stateMutability": "view",
      "type": "function"
    },
    {
      "inputs": [
        {
          "internalType": "uint256",
          "name": "tokenId",
          "type": "uint256"
        }
      ],
      "name": "ownerOf",
      "outputs": [
        {
          "internalType": "address",
          "name": "",
          "type": "address"
        }
      ],
      "stateMutability": "view",
      "type": "function"
    },
    {
      "inputs": [
        {
          "internalType": "bytes32",
          "name": "requestId",
          "type": "bytes32"
        },
        {
          "internalType": "uint256",
          "name": "randomness",
          "type": "uint256"
        }
      ],
      "name": "rawFulfillRandomness",
      "outputs": [],
      "stateMutability": "nonpayable",
      "type": "function"
    },
    {
      "inputs": [],
      "name": "renounceOwnership",
      "outputs": [],
      "stateMutability": "nonpayable",
      "type": "function"
    },
    {
      "inputs": [
        {
          "internalType": "address",
          "name": "from",
          "type": "address"
        },
        {
          "internalType": "address",
          "name": "to",
          "type": "address"
        },
        {
          "internalType": "uint256",
          "name": "tokenId",
          "type": "uint256"
        }
      ],
      "name": "safeTransferFrom",
      "outputs": [],
      "stateMutability": "nonpayable",
      "type": "function"
    },
    {
      "inputs": [
        {
          "internalType": "address",
          "name": "from",
          "type": "address"
        },
        {
          "internalType": "address",
          "name": "to",
          "type": "address"
        },
        {
          "internalType": "uint256",
          "name": "tokenId",
          "type": "uint256"
        },
        {
          "internalType": "bytes",
          "name": "_data",
          "type": "bytes"
        }
      ],
      "name": "safeTransferFrom",
      "outputs": [],
      "stateMutability": "nonpayable",
      "type": "function"
    },
    {
      "inputs": [
        {
          "internalType": "address",
          "name": "operator",
          "type": "address"
        },
        {
          "internalType": "bool",
          "name": "approved",
          "type": "bool"
        }
      ],
      "name": "setApprovalForAll",
      "outputs": [],
      "stateMutability": "nonpayable",
      "type": "function"
    },
    {
      "inputs": [
        {
          "internalType": "bytes4",
          "name": "interfaceId",
          "type": "bytes4"
        }
      ],
      "name": "supportsInterface",
      "outputs": [
        {
          "internalType": "bool",
          "name": "",
          "type": "bool"
        }
      ],
      "stateMutability": "view",
      "type": "function"
    },
    {
      "inputs": [],
      "name": "symbol",
      "outputs": [
        {
          "internalType": "string",
          "name": "",
          "type": "string"
        }
      ],
      "stateMutability": "view",
      "type": "function"
    },
    {
      "inputs": [
        {
          "internalType": "uint256",
          "name": "tokenId",
          "type": "uint256"
        }
      ],
      "name": "tokenURI",
      "outputs": [
        {
          "internalType": "string",
          "name": "",
          "type": "string"
        }
      ],
      "stateMutability": "view",
      "type": "function"
    },
    {
      "inputs": [
        {
          "internalType": "address",
          "name": "from",
          "type": "address"
        },
        {
          "internalType": "address",
          "name": "to",
          "type": "address"
        },
        {
          "internalType": "uint256",
          "name": "tokenId",
          "type": "uint256"
        }
      ],
      "name": "transferFrom",
      "outputs": [],
      "stateMutability": "nonpayable",
      "type": "function"
    },
    {
      "inputs": [
        {
          "internalType": "address",
          "name": "newOwner",
          "type": "address"
        }
      ],
      "name": "transferOwnership",
      "outputs": [],
      "stateMutability": "nonpayable",
      "type": "function"
    },
    {
      "inputs": [],
      "name": "withdrawLink",
      "outputs": [],
      "stateMutability": "nonpayable",
      "type": "function"
    }
  ],
  "transactionHash": "0x763d62191d4035244252f7d3a4bc58c62ee08b67ba167c35efc83348074c8a1b",
  "args": [
    "0xb3dCcb4Cf7a26f6cf6B120Cf5A73875B7BBc655B",
    "0x01be23585060835e02b77ef475b0cc51aa1e0709",
    "0x2ed0feb3e7fd2022120aa84fab1945545a9f2ffc9076fd6156fa96eaff4c1311"
  ],
  "solcInputHash": "aecf87a8b878bbf10f1f9e0aa1b90782",
  "bytecode": "0x60c06040523480156200001157600080fd5b50604051620040673803806200406783398181016040528101906200003791906200037d565b82826040518060400160405280600981526020017f436f7669644361747300000000000000000000000000000000000000000000008152506040518060400160405280600881526020017f436f7669644361740000000000000000000000000000000000000000000000008152508160009080519060200190620000bd9291906200029f565b508060019080519060200190620000d69291906200029f565b5050508173ffffffffffffffffffffffffffffffffffffffff1660a08173ffffffffffffffffffffffffffffffffffffffff1660601b815250508073ffffffffffffffffffffffffffffffffffffffff1660808173ffffffffffffffffffffffffffffffffffffffff1660601b815250505050620001696200015d620001d160201b60201c565b620001d960201b60201c565b600160088190555081600e60006101000a81548173ffffffffffffffffffffffffffffffffffffffff021916908373ffffffffffffffffffffffffffffffffffffffff16021790555080600a8190555067016345785d8a0000600b81905550505050620004aa565b600033905090565b6000600760009054906101000a900473ffffffffffffffffffffffffffffffffffffffff16905081600760006101000a81548173ffffffffffffffffffffffffffffffffffffffff021916908373ffffffffffffffffffffffffffffffffffffffff1602179055508173ffffffffffffffffffffffffffffffffffffffff168173ffffffffffffffffffffffffffffffffffffffff167f8be0079c531659141344cd1fd0a4f28419497f9722a3daafe3b4186f6b6457e060405160405180910390a35050565b828054620002ad9062000411565b90600052602060002090601f016020900481019282620002d157600085556200031d565b82601f10620002ec57805160ff19168380011785556200031d565b828001600101855582156200031d579182015b828111156200031c578251825591602001919060010190620002ff565b5b5090506200032c919062000330565b5090565b5b808211156200034b57600081600090555060010162000331565b5090565b600081519050620003608162000476565b92915050565b600081519050620003778162000490565b92915050565b6000806000606084860312156200039357600080fd5b6000620003a3868287016200034f565b9350506020620003b6868287016200034f565b9250506040620003c98682870162000366565b9150509250925092565b6000620003e082620003f1565b9050919050565b6000819050919050565b600073ffffffffffffffffffffffffffffffffffffffff82169050919050565b600060028204905060018216806200042a57607f821691505b6020821081141562000441576200044062000447565b5b50919050565b7f4e487b7100000000000000000000000000000000000000000000000000000000600052602260045260246000fd5b6200048181620003d3565b81146200048d57600080fd5b50565b6200049b81620003e7565b8114620004a757600080fd5b50565b60805160601c60a05160601c613b83620004e460003960008181610d4e01526117a101526000818161075701526117650152613b836000f3fe608060405234801561001057600080fd5b506004361061012c5760003560e01c8063715018a6116100ad578063a22cb46511610071578063a22cb4651461030b578063b88d4fde14610327578063c87b56dd14610343578063e985e9c514610373578063f2fde38b146103a35761012c565b8063715018a61461029f5780638da5cb5b146102a95780638dc654a2146102c757806394985ddd146102d157806395d89b41146102ed5761012c565b806342842e0e116100f457806342842e0e146101e75780634e71d92d14610203578063592756a1146102215780636352211e1461023f57806370a082311461026f5761012c565b806301ffc9a71461013157806306fdde0314610161578063081812fc1461017f578063095ea7b3146101af57806323b872dd146101cb575b600080fd5b61014b60048036038101906101469190612735565b6103bf565b6040516101589190612d5d565b60405180910390f35b6101696104a1565b6040516101769190612e1c565b60405180910390f35b61019960048036038101906101949190612787565b610533565b6040516101a69190612c8f565b60405180910390f35b6101c960048036038101906101c49190612694565b6105b8565b005b6101e560048036038101906101e0919061258e565b6106d0565b005b61020160048036038101906101fc919061258e565b610730565b005b61020b610750565b6040516102189190612d78565b60405180910390f35b61022961098f565b6040516102369190612e01565b60405180910390f35b61025960048036038101906102549190612787565b6109b5565b6040516102669190612c8f565b60405180910390f35b61028960048036038101906102849190612529565b610a67565b60405161029691906130fe565b60405180910390f35b6102a7610b1f565b005b6102b1610ba7565b6040516102be9190612c8f565b60405180910390f35b6102cf610bd1565b005b6102eb60048036038101906102e691906126f9565b610d4c565b005b6102f5610de8565b6040516103029190612e1c565b60405180910390f35b61032560048036038101906103209190612658565b610e7a565b005b610341600480360381019061033c91906125dd565b610ffb565b005b61035d60048036038101906103589190612787565b61105d565b60405161036a9190612e1c565b60405180910390f35b61038d60048036038101906103889190612552565b611104565b60405161039a9190612d5d565b60405180910390f35b6103bd60048036038101906103b89190612529565b611198565b005b60007f80ac58cd000000000000000000000000000000000000000000000000000000007bffffffffffffffffffffffffffffffffffffffffffffffffffffffff1916827bffffffffffffffffffffffffffffffffffffffffffffffffffffffff1916148061048a57507f5b5e139f000000000000000000000000000000000000000000000000000000007bffffffffffffffffffffffffffffffffffffffffffffffffffffffff1916827bffffffffffffffffffffffffffffffffffffffffffffffffffffffff1916145b8061049a575061049982611290565b5b9050919050565b6060600080546104b09061335c565b80601f01602080910402602001604051908101604052809291908181526020018280546104dc9061335c565b80156105295780601f106104fe57610100808354040283529160200191610529565b820191906000526020600020905b81548152906001019060200180831161050c57829003601f168201915b5050505050905090565b600061053e826112fa565b61057d576040517f08c379a000000000000000000000000000000000000000000000000000000000815260040161057490612fbe565b60405180910390fd5b6004600083815260200190815260200160002060009054906101000a900473ffffffffffffffffffffffffffffffffffffffff169050919050565b60006105c3826109b5565b90508073ffffffffffffffffffffffffffffffffffffffff168373ffffffffffffffffffffffffffffffffffffffff161415610634576040517f08c379a000000000000000000000000000000000000000000000000000000000815260040161062b9061305e565b60405180910390fd5b8073ffffffffffffffffffffffffffffffffffffffff16610653611366565b73ffffffffffffffffffffffffffffffffffffffff16148061068257506106818161067c611366565b611104565b5b6106c1576040517f08c379a00000000000000000000000000000000000000000000000000000000081526004016106b890612f3e565b60405180910390fd5b6106cb838361136e565b505050565b6106e16106db611366565b82611427565b610720576040517f08c379a00000000000000000000000000000000000000000000000000000000081526004016107179061309e565b60405180910390fd5b61072b838383611505565b505050565b61074b83838360405180602001604052806000815250610ffb565b505050565b6000600b547f000000000000000000000000000000000000000000000000000000000000000073ffffffffffffffffffffffffffffffffffffffff166370a08231306040518263ffffffff1660e01b81526004016107ae9190612c8f565b60206040518083038186803b1580156107c657600080fd5b505afa1580156107da573d6000803e3d6000fd5b505050506040513d601f19601f820116820180604052508101906107fe91906127b0565b101561083f576040517f08c379a000000000000000000000000000000000000000000000000000000000815260040161083690612ede565b60405180910390fd5b60001515600d60003373ffffffffffffffffffffffffffffffffffffffff1673ffffffffffffffffffffffffffffffffffffffff16815260200190815260200160002060009054906101000a900460ff161515146108d2576040517f08c379a00000000000000000000000000000000000000000000000000000000081526004016108c99061307e565b60405180910390fd5b6108e0600a54600b54611761565b905033600c600083815260200190815260200160002060006101000a81548173ffffffffffffffffffffffffffffffffffffffff021916908373ffffffffffffffffffffffffffffffffffffffff1602179055506001600d60003373ffffffffffffffffffffffffffffffffffffffff1673ffffffffffffffffffffffffffffffffffffffff16815260200190815260200160002060006101000a81548160ff02191690831515021790555090565b600e60009054906101000a900473ffffffffffffffffffffffffffffffffffffffff1681565b6000806002600084815260200190815260200160002060009054906101000a900473ffffffffffffffffffffffffffffffffffffffff169050600073ffffffffffffffffffffffffffffffffffffffff168173ffffffffffffffffffffffffffffffffffffffff161415610a5e576040517f08c379a0000000000000000000000000000000000000000000000000000000008152600401610a5590612f7e565b60405180910390fd5b80915050919050565b60008073ffffffffffffffffffffffffffffffffffffffff168273ffffffffffffffffffffffffffffffffffffffff161415610ad8576040517f08c379a0000000000000000000000000000000000000000000000000000000008152600401610acf90612f5e565b60405180910390fd5b600360008373ffffffffffffffffffffffffffffffffffffffff1673ffffffffffffffffffffffffffffffffffffffff168152602001908152602001600020549050919050565b610b27611366565b73ffffffffffffffffffffffffffffffffffffffff16610b45610ba7565b73ffffffffffffffffffffffffffffffffffffffff1614610b9b576040517f08c379a0000000000000000000000000000000000000000000000000000000008152600401610b9290612fde565b60405180910390fd5b610ba560006118c3565b565b6000600760009054906101000a900473ffffffffffffffffffffffffffffffffffffffff16905090565b610bd9611366565b73ffffffffffffffffffffffffffffffffffffffff16610bf7610ba7565b73ffffffffffffffffffffffffffffffffffffffff1614610c4d576040517f08c379a0000000000000000000000000000000000000000000000000000000008152600401610c4490612fde565b60405180910390fd5b6000600e60009054906101000a900473ffffffffffffffffffffffffffffffffffffffff1673ffffffffffffffffffffffffffffffffffffffff166370a08231306040518263ffffffff1660e01b8152600401610caa9190612c8f565b60206040518083038186803b158015610cc257600080fd5b505afa158015610cd6573d6000803e3d6000fd5b505050506040513d601f19601f82011682018060405250810190610cfa91906127b0565b9050610d493382600e60009054906101000a900473ffffffffffffffffffffffffffffffffffffffff1673ffffffffffffffffffffffffffffffffffffffff166119899092919063ffffffff16565b50565b7f000000000000000000000000000000000000000000000000000000000000000073ffffffffffffffffffffffffffffffffffffffff163373ffffffffffffffffffffffffffffffffffffffff1614610dda576040517f08c379a0000000000000000000000000000000000000000000000000000000008152600401610dd19061303e565b60405180910390fd5b610de48282611a0f565b5050565b606060018054610df79061335c565b80601f0160208091040260200160405190810160405280929190818152602001828054610e239061335c565b8015610e705780601f10610e4557610100808354040283529160200191610e70565b820191906000526020600020905b815481529060010190602001808311610e5357829003601f168201915b5050505050905090565b610e82611366565b73ffffffffffffffffffffffffffffffffffffffff168273ffffffffffffffffffffffffffffffffffffffff161415610ef0576040517f08c379a0000000000000000000000000000000000000000000000000000000008152600401610ee790612ebe565b60405180910390fd5b8060056000610efd611366565b73ffffffffffffffffffffffffffffffffffffffff1673ffffffffffffffffffffffffffffffffffffffff16815260200190815260200160002060008473ffffffffffffffffffffffffffffffffffffffff1673ffffffffffffffffffffffffffffffffffffffff16815260200190815260200160002060006101000a81548160ff0219169083151502179055508173ffffffffffffffffffffffffffffffffffffffff16610faa611366565b73ffffffffffffffffffffffffffffffffffffffff167f17307eab39ab6107e8899845ad3d59bd9653f200f220920489ca2b5937696c3183604051610fef9190612d5d565b60405180910390a35050565b61100c611006611366565b83611427565b61104b576040517f08c379a00000000000000000000000000000000000000000000000000000000081526004016110429061309e565b60405180910390fd5b61105784848484611b16565b50505050565b6060611068826112fa565b6110a7576040517f08c379a000000000000000000000000000000000000000000000000000000000815260040161109e9061301e565b60405180910390fd5b60006110b1611b72565b905060008151116110d157604051806020016040528060008152506110fc565b806110db84611b89565b6040516020016110ec929190612c6b565b6040516020818303038152906040525b915050919050565b6000600560008473ffffffffffffffffffffffffffffffffffffffff1673ffffffffffffffffffffffffffffffffffffffff16815260200190815260200160002060008373ffffffffffffffffffffffffffffffffffffffff1673ffffffffffffffffffffffffffffffffffffffff16815260200190815260200160002060009054906101000a900460ff16905092915050565b6111a0611366565b73ffffffffffffffffffffffffffffffffffffffff166111be610ba7565b73ffffffffffffffffffffffffffffffffffffffff1614611214576040517f08c379a000000000000000000000000000000000000000000000000000000000815260040161120b90612fde565b60405180910390fd5b600073ffffffffffffffffffffffffffffffffffffffff168173ffffffffffffffffffffffffffffffffffffffff161415611284576040517f08c379a000000000000000000000000000000000000000000000000000000000815260040161127b90612e5e565b60405180910390fd5b61128d816118c3565b50565b60007f01ffc9a7000000000000000000000000000000000000000000000000000000007bffffffffffffffffffffffffffffffffffffffffffffffffffffffff1916827bffffffffffffffffffffffffffffffffffffffffffffffffffffffff1916149050919050565b60008073ffffffffffffffffffffffffffffffffffffffff166002600084815260200190815260200160002060009054906101000a900473ffffffffffffffffffffffffffffffffffffffff1673ffffffffffffffffffffffffffffffffffffffff1614159050919050565b600033905090565b816004600083815260200190815260200160002060006101000a81548173ffffffffffffffffffffffffffffffffffffffff021916908373ffffffffffffffffffffffffffffffffffffffff160217905550808273ffffffffffffffffffffffffffffffffffffffff166113e1836109b5565b73ffffffffffffffffffffffffffffffffffffffff167f8c5be1e5ebec7d5bd14f71427d1e84f3dd0314c0f7b2291e5b200ac8c7c3b92560405160405180910390a45050565b6000611432826112fa565b611471576040517f08c379a000000000000000000000000000000000000000000000000000000000815260040161146890612f1e565b60405180910390fd5b600061147c836109b5565b90508073ffffffffffffffffffffffffffffffffffffffff168473ffffffffffffffffffffffffffffffffffffffff1614806114eb57508373ffffffffffffffffffffffffffffffffffffffff166114d384610533565b73ffffffffffffffffffffffffffffffffffffffff16145b806114fc57506114fb8185611104565b5b91505092915050565b8273ffffffffffffffffffffffffffffffffffffffff16611525826109b5565b73ffffffffffffffffffffffffffffffffffffffff161461157b576040517f08c379a000000000000000000000000000000000000000000000000000000000815260040161157290612ffe565b60405180910390fd5b600073ffffffffffffffffffffffffffffffffffffffff168273ffffffffffffffffffffffffffffffffffffffff1614156115eb576040517f08c379a00000000000000000000000000000000000000000000000000000000081526004016115e290612e9e565b60405180910390fd5b6115f6838383611d36565b61160160008261136e565b6001600360008573ffffffffffffffffffffffffffffffffffffffff1673ffffffffffffffffffffffffffffffffffffffff16815260200190815260200160002060008282546116519190613244565b925050819055506001600360008473ffffffffffffffffffffffffffffffffffffffff1673ffffffffffffffffffffffffffffffffffffffff16815260200190815260200160002060008282546116a891906131bd565b92505081905550816002600083815260200190815260200160002060006101000a81548173ffffffffffffffffffffffffffffffffffffffff021916908373ffffffffffffffffffffffffffffffffffffffff160217905550808273ffffffffffffffffffffffffffffffffffffffff168473ffffffffffffffffffffffffffffffffffffffff167fddf252ad1be2c89b69c2b068fc378daa952ba7f163c4a11628f55a4df523b3ef60405160405180910390a4505050565b60007f000000000000000000000000000000000000000000000000000000000000000073ffffffffffffffffffffffffffffffffffffffff16634000aea07f0000000000000000000000000000000000000000000000000000000000000000848660006040516020016117d5929190612d93565b6040516020818303038152906040526040518463ffffffff1660e01b815260040161180293929190612d1f565b602060405180830381600087803b15801561181c57600080fd5b505af1158015611830573d6000803e3d6000fd5b505050506040513d601f19601f8201168201806040525081019061185491906126d0565b506000611877846000306006600089815260200190815260200160002054611d3b565b90506001600660008681526020019081526020016000205461189991906131bd565b60066000868152602001908152602001600020819055506118ba8482611d77565b91505092915050565b6000600760009054906101000a900473ffffffffffffffffffffffffffffffffffffffff16905081600760006101000a81548173ffffffffffffffffffffffffffffffffffffffff021916908373ffffffffffffffffffffffffffffffffffffffff1602179055508173ffffffffffffffffffffffffffffffffffffffff168173ffffffffffffffffffffffffffffffffffffffff167f8be0079c531659141344cd1fd0a4f28419497f9722a3daafe3b4186f6b6457e060405160405180910390a35050565b611a0a8363a9059cbb60e01b84846040516024016119a8929190612cf6565b604051602081830303815290604052907bffffffffffffffffffffffffffffffffffffffffffffffffffffffff19166020820180517bffffffffffffffffffffffffffffffffffffffffffffffffffffffff8381831617835250505050611daa565b505050565b6000600c600084815260200190815260200160002060009054906101000a900473ffffffffffffffffffffffffffffffffffffffff1690506000611a536009611e71565b9050611a5f8282611e7f565b611a696009611e9d565b808273ffffffffffffffffffffffffffffffffffffffff167f4c209b5fc8ad50758f13e2e1088ba56a560dff690a1c6fef26394f4c03821c4f85604051611ab091906130fe565b60405180910390a36000600d60008473ffffffffffffffffffffffffffffffffffffffff1673ffffffffffffffffffffffffffffffffffffffff16815260200190815260200160002060006101000a81548160ff02191690831515021790555050505050565b611b21848484611505565b611b2d84848484611eb3565b611b6c576040517f08c379a0000000000000000000000000000000000000000000000000000000008152600401611b6390612e3e565b60405180910390fd5b50505050565b606060405180602001604052806000815250905090565b60606000821415611bd1576040518060400160405280600181526020017f30000000000000000000000000000000000000000000000000000000000000008152509050611d31565b600082905060005b60008214611c03578080611bec906133bf565b915050600a82611bfc9190613213565b9150611bd9565b60008167ffffffffffffffff811115611c45577f4e487b7100000000000000000000000000000000000000000000000000000000600052604160045260246000fd5b6040519080825280601f01601f191660200182016040528015611c775781602001600182028036833780820191505090505b5090505b60008514611d2a57600182611c909190613244565b9150600a85611c9f919061341c565b6030611cab91906131bd565b60f81b818381518110611ce7577f4e487b7100000000000000000000000000000000000000000000000000000000600052603260045260246000fd5b60200101907effffffffffffffffffffffffffffffffffffffffffffffffffffffffffffff1916908160001a905350600a85611d239190613213565b9450611c7b565b8093505050505b919050565b505050565b600084848484604051602001611d549493929190612dbc565b6040516020818303038152906040528051906020012060001c9050949350505050565b60008282604051602001611d8c929190612c28565b60405160208183030381529060405280519060200120905092915050565b6000611e0c826040518060400160405280602081526020017f5361666545524332303a206c6f772d6c6576656c2063616c6c206661696c65648152508573ffffffffffffffffffffffffffffffffffffffff1661204a9092919063ffffffff16565b9050600081511115611e6c5780806020019051810190611e2c91906126d0565b611e6b576040517f08c379a0000000000000000000000000000000000000000000000000000000008152600401611e62906130de565b60405180910390fd5b5b505050565b600081600001549050919050565b611e99828260405180602001604052806000815250612062565b5050565b6001816000016000828254019250508190555050565b6000611ed48473ffffffffffffffffffffffffffffffffffffffff166120bd565b1561203d578373ffffffffffffffffffffffffffffffffffffffff1663150b7a02611efd611366565b8786866040518563ffffffff1660e01b8152600401611f1f9493929190612caa565b602060405180830381600087803b158015611f3957600080fd5b505af1925050508015611f6a57506040513d601f19601f82011682018060405250810190611f67919061275e565b60015b611fed573d8060008114611f9a576040519150601f19603f3d011682016040523d82523d6000602084013e611f9f565b606091505b50600081511415611fe5576040517f08c379a0000000000000000000000000000000000000000000000000000000008152600401611fdc90612e3e565b60405180910390fd5b805181602001fd5b63150b7a0260e01b7bffffffffffffffffffffffffffffffffffffffffffffffffffffffff1916817bffffffffffffffffffffffffffffffffffffffffffffffffffffffff191614915050612042565b600190505b949350505050565b606061205984846000856120d0565b90509392505050565b61206c83836121e4565b6120796000848484611eb3565b6120b8576040517f08c379a00000000000000000000000000000000000000000000000000000000081526004016120af90612e3e565b60405180910390fd5b505050565b600080823b905060008111915050919050565b606082471015612115576040517f08c379a000000000000000000000000000000000000000000000000000000000815260040161210c90612efe565b60405180910390fd5b61211e856120bd565b61215d576040517f08c379a0000000000000000000000000000000000000000000000000000000008152600401612154906130be565b60405180910390fd5b6000808673ffffffffffffffffffffffffffffffffffffffff1685876040516121869190612c54565b60006040518083038185875af1925050503d80600081146121c3576040519150601f19603f3d011682016040523d82523d6000602084013e6121c8565b606091505b50915091506121d88282866123b2565b92505050949350505050565b600073ffffffffffffffffffffffffffffffffffffffff168273ffffffffffffffffffffffffffffffffffffffff161415612254576040517f08c379a000000000000000000000000000000000000000000000000000000000815260040161224b90612f9e565b60405180910390fd5b61225d816112fa565b1561229d576040517f08c379a000000000000000000000000000000000000000000000000000000000815260040161229490612e7e565b60405180910390fd5b6122a960008383611d36565b6001600360008473ffffffffffffffffffffffffffffffffffffffff1673ffffffffffffffffffffffffffffffffffffffff16815260200190815260200160002060008282546122f991906131bd565b92505081905550816002600083815260200190815260200160002060006101000a81548173ffffffffffffffffffffffffffffffffffffffff021916908373ffffffffffffffffffffffffffffffffffffffff160217905550808273ffffffffffffffffffffffffffffffffffffffff16600073ffffffffffffffffffffffffffffffffffffffff167fddf252ad1be2c89b69c2b068fc378daa952ba7f163c4a11628f55a4df523b3ef60405160405180910390a45050565b606083156123c257829050612412565b6000835111156123d55782518084602001fd5b816040517f08c379a00000000000000000000000000000000000000000000000000000000081526004016124099190612e1c565b60405180910390fd5b9392505050565b600061242c6124278461313e565b613119565b90508281526020810184848401111561244457600080fd5b61244f84828561331a565b509392505050565b60008135905061246681613ada565b92915050565b60008135905061247b81613af1565b92915050565b60008151905061249081613af1565b92915050565b6000813590506124a581613b08565b92915050565b6000813590506124ba81613b1f565b92915050565b6000815190506124cf81613b1f565b92915050565b600082601f8301126124e657600080fd5b81356124f6848260208601612419565b91505092915050565b60008135905061250e81613b36565b92915050565b60008151905061252381613b36565b92915050565b60006020828403121561253b57600080fd5b600061254984828501612457565b91505092915050565b6000806040838503121561256557600080fd5b600061257385828601612457565b925050602061258485828601612457565b9150509250929050565b6000806000606084860312156125a357600080fd5b60006125b186828701612457565b93505060206125c286828701612457565b92505060406125d3868287016124ff565b9150509250925092565b600080600080608085870312156125f357600080fd5b600061260187828801612457565b945050602061261287828801612457565b9350506040612623878288016124ff565b925050606085013567ffffffffffffffff81111561264057600080fd5b61264c878288016124d5565b91505092959194509250565b6000806040838503121561266b57600080fd5b600061267985828601612457565b925050602061268a8582860161246c565b9150509250929050565b600080604083850312156126a757600080fd5b60006126b585828601612457565b92505060206126c6858286016124ff565b9150509250929050565b6000602082840312156126e257600080fd5b60006126f084828501612481565b91505092915050565b6000806040838503121561270c57600080fd5b600061271a85828601612496565b925050602061272b858286016124ff565b9150509250929050565b60006020828403121561274757600080fd5b6000612755848285016124ab565b91505092915050565b60006020828403121561277057600080fd5b600061277e848285016124c0565b91505092915050565b60006020828403121561279957600080fd5b60006127a7848285016124ff565b91505092915050565b6000602082840312156127c257600080fd5b60006127d084828501612514565b91505092915050565b6127e281613278565b82525050565b6127f18161328a565b82525050565b61280081613296565b82525050565b61281761281282613296565b613408565b82525050565b60006128288261316f565b6128328185613185565b9350612842818560208601613329565b61284b81613509565b840191505092915050565b60006128618261316f565b61286b8185613196565b935061287b818560208601613329565b80840191505092915050565b612890816132f6565b82525050565b60006128a18261317a565b6128ab81856131a1565b93506128bb818560208601613329565b6128c481613509565b840191505092915050565b60006128da8261317a565b6128e481856131b2565b93506128f4818560208601613329565b80840191505092915050565b600061290d6032836131a1565b91506129188261351a565b604082019050919050565b60006129306026836131a1565b915061293b82613569565b604082019050919050565b6000612953601c836131a1565b915061295e826135b8565b602082019050919050565b60006129766024836131a1565b9150612981826135e1565b604082019050919050565b60006129996019836131a1565b91506129a482613630565b602082019050919050565b60006129bc602b836131a1565b91506129c782613659565b604082019050919050565b60006129df6026836131a1565b91506129ea826136a8565b604082019050919050565b6000612a02602c836131a1565b9150612a0d826136f7565b604082019050919050565b6000612a256038836131a1565b9150612a3082613746565b604082019050919050565b6000612a48602a836131a1565b9150612a5382613795565b604082019050919050565b6000612a6b6029836131a1565b9150612a76826137e4565b604082019050919050565b6000612a8e6020836131a1565b9150612a9982613833565b602082019050919050565b6000612ab1602c836131a1565b9150612abc8261385c565b604082019050919050565b6000612ad46020836131a1565b9150612adf826138ab565b602082019050919050565b6000612af76029836131a1565b9150612b02826138d4565b604082019050919050565b6000612b1a602f836131a1565b9150612b2582613923565b604082019050919050565b6000612b3d601f836131a1565b9150612b4882613972565b602082019050919050565b6000612b606021836131a1565b9150612b6b8261399b565b604082019050919050565b6000612b836020836131a1565b9150612b8e826139ea565b602082019050919050565b6000612ba66031836131a1565b9150612bb182613a13565b604082019050919050565b6000612bc9601d836131a1565b9150612bd482613a62565b602082019050919050565b6000612bec602a836131a1565b9150612bf782613a8b565b604082019050919050565b612c0b816132ec565b82525050565b612c22612c1d826132ec565b613412565b82525050565b6000612c348285612806565b602082019150612c448284612c11565b6020820191508190509392505050565b6000612c608284612856565b915081905092915050565b6000612c7782856128cf565b9150612c8382846128cf565b91508190509392505050565b6000602082019050612ca460008301846127d9565b92915050565b6000608082019050612cbf60008301876127d9565b612ccc60208301866127d9565b612cd96040830185612c02565b8181036060830152612ceb818461281d565b905095945050505050565b6000604082019050612d0b60008301856127d9565b612d186020830184612c02565b9392505050565b6000606082019050612d3460008301866127d9565b612d416020830185612c02565b8181036040830152612d53818461281d565b9050949350505050565b6000602082019050612d7260008301846127e8565b92915050565b6000602082019050612d8d60008301846127f7565b92915050565b6000604082019050612da860008301856127f7565b612db56020830184612c02565b9392505050565b6000608082019050612dd160008301876127f7565b612dde6020830186612c02565b612deb60408301856127d9565b612df86060830184612c02565b95945050505050565b6000602082019050612e166000830184612887565b92915050565b60006020820190508181036000830152612e368184612896565b905092915050565b60006020820190508181036000830152612e5781612900565b9050919050565b60006020820190508181036000830152612e7781612923565b9050919050565b60006020820190508181036000830152612e9781612946565b9050919050565b60006020820190508181036000830152612eb781612969565b9050919050565b60006020820190508181036000830152612ed78161298c565b9050919050565b60006020820190508181036000830152612ef7816129af565b9050919050565b60006020820190508181036000830152612f17816129d2565b9050919050565b60006020820190508181036000830152612f37816129f5565b9050919050565b60006020820190508181036000830152612f5781612a18565b9050919050565b60006020820190508181036000830152612f7781612a3b565b9050919050565b60006020820190508181036000830152612f9781612a5e565b9050919050565b60006020820190508181036000830152612fb781612a81565b9050919050565b60006020820190508181036000830152612fd781612aa4565b9050919050565b60006020820190508181036000830152612ff781612ac7565b9050919050565b6000602082019050818103600083015261301781612aea565b9050919050565b6000602082019050818103600083015261303781612b0d565b9050919050565b6000602082019050818103600083015261305781612b30565b9050919050565b6000602082019050818103600083015261307781612b53565b9050919050565b6000602082019050818103600083015261309781612b76565b9050919050565b600060208201905081810360008301526130b781612b99565b9050919050565b600060208201905081810360008301526130d781612bbc565b9050919050565b600060208201905081810360008301526130f781612bdf565b9050919050565b60006020820190506131136000830184612c02565b92915050565b6000613123613134565b905061312f828261338e565b919050565b6000604051905090565b600067ffffffffffffffff821115613159576131586134da565b5b61316282613509565b9050602081019050919050565b600081519050919050565b600081519050919050565b600082825260208201905092915050565b600081905092915050565b600082825260208201905092915050565b600081905092915050565b60006131c8826132ec565b91506131d3836132ec565b9250827fffffffffffffffffffffffffffffffffffffffffffffffffffffffffffffffff038211156132085761320761344d565b5b828201905092915050565b600061321e826132ec565b9150613229836132ec565b9250826132395761323861347c565b5b828204905092915050565b600061324f826132ec565b915061325a836132ec565b92508282101561326d5761326c61344d565b5b828203905092915050565b6000613283826132cc565b9050919050565b60008115159050919050565b6000819050919050565b60007fffffffff0000000000000000000000000000000000000000000000000000000082169050919050565b600073ffffffffffffffffffffffffffffffffffffffff82169050919050565b6000819050919050565b600061330182613308565b9050919050565b6000613313826132cc565b9050919050565b82818337600083830152505050565b60005b8381101561334757808201518184015260208101905061332c565b83811115613356576000848401525b50505050565b6000600282049050600182168061337457607f821691505b60208210811415613388576133876134ab565b5b50919050565b61339782613509565b810181811067ffffffffffffffff821117156133b6576133b56134da565b5b80604052505050565b60006133ca826132ec565b91507fffffffffffffffffffffffffffffffffffffffffffffffffffffffffffffffff8214156133fd576133fc61344d565b5b600182019050919050565b6000819050919050565b6000819050919050565b6000613427826132ec565b9150613432836132ec565b9250826134425761344161347c565b5b828206905092915050565b7f4e487b7100000000000000000000000000000000000000000000000000000000600052601160045260246000fd5b7f4e487b7100000000000000000000000000000000000000000000000000000000600052601260045260246000fd5b7f4e487b7100000000000000000000000000000000000000000000000000000000600052602260045260246000fd5b7f4e487b7100000000000000000000000000000000000000000000000000000000600052604160045260246000fd5b6000601f19601f8301169050919050565b7f4552433732313a207472616e7366657220746f206e6f6e20455243373231526560008201527f63656976657220696d706c656d656e7465720000000000000000000000000000602082015250565b7f4f776e61626c653a206e6577206f776e657220697320746865207a65726f206160008201527f6464726573730000000000000000000000000000000000000000000000000000602082015250565b7f4552433732313a20746f6b656e20616c7265616479206d696e74656400000000600082015250565b7f4552433732313a207472616e7366657220746f20746865207a65726f2061646460008201527f7265737300000000000000000000000000000000000000000000000000000000602082015250565b7f4552433732313a20617070726f766520746f2063616c6c657200000000000000600082015250565b7f4e6f7420656e6f756768204c494e4b202d2066696c6c20636f6e74726163742060008201527f7769746820666175636574000000000000000000000000000000000000000000602082015250565b7f416464726573733a20696e73756666696369656e742062616c616e636520666f60008201527f722063616c6c0000000000000000000000000000000000000000000000000000602082015250565b7f4552433732313a206f70657261746f7220717565727920666f72206e6f6e657860008201527f697374656e7420746f6b656e0000000000000000000000000000000000000000602082015250565b7f4552433732313a20617070726f76652063616c6c6572206973206e6f74206f7760008201527f6e6572206e6f7220617070726f76656420666f7220616c6c0000000000000000602082015250565b7f4552433732313a2062616c616e636520717565727920666f7220746865207a6560008201527f726f206164647265737300000000000000000000000000000000000000000000602082015250565b7f4552433732313a206f776e657220717565727920666f72206e6f6e657869737460008201527f656e7420746f6b656e0000000000000000000000000000000000000000000000602082015250565b7f4552433732313a206d696e7420746f20746865207a65726f2061646472657373600082015250565b7f4552433732313a20617070726f76656420717565727920666f72206e6f6e657860008201527f697374656e7420746f6b656e0000000000000000000000000000000000000000602082015250565b7f4f776e61626c653a2063616c6c6572206973206e6f7420746865206f776e6572600082015250565b7f4552433732313a207472616e73666572206f6620746f6b656e2074686174206960008201527f73206e6f74206f776e0000000000000000000000000000000000000000000000602082015250565b7f4552433732314d657461646174613a2055524920717565727920666f72206e6f60008201527f6e6578697374656e7420746f6b656e0000000000000000000000000000000000602082015250565b7f4f6e6c7920565246436f6f7264696e61746f722063616e2066756c66696c6c00600082015250565b7f4552433732313a20617070726f76616c20746f2063757272656e74206f776e6560008201527f7200000000000000000000000000000000000000000000000000000000000000602082015250565b7f594f552043414e4e4f5420434c41494d20414e4f54484552204e465420594554600082015250565b7f4552433732313a207472616e736665722063616c6c6572206973206e6f74206f60008201527f776e6572206e6f7220617070726f766564000000000000000000000000000000602082015250565b7f416464726573733a2063616c6c20746f206e6f6e2d636f6e7472616374000000600082015250565b7f5361666545524332303a204552433230206f7065726174696f6e20646964206e60008201527f6f74207375636365656400000000000000000000000000000000000000000000602082015250565b613ae381613278565b8114613aee57600080fd5b50565b613afa8161328a565b8114613b0557600080fd5b50565b613b1181613296565b8114613b1c57600080fd5b50565b613b28816132a0565b8114613b3357600080fd5b50565b613b3f816132ec565b8114613b4a57600080fd5b5056fea2646970667358221220348613babab3126775b4fd44680cac2104e1f1c004a73e2216f2722c32f5be8264736f6c63430008040033",
  "devdoc": {
    "kind": "dev",
    "methods": {
      "approve(address,uint256)": {
        "details": "See {IERC721-approve}."
      },
      "balanceOf(address)": {
        "details": "See {IERC721-balanceOf}."
      },
      "getApproved(uint256)": {
        "details": "See {IERC721-getApproved}."
      },
      "isApprovedForAll(address,address)": {
        "details": "See {IERC721-isApprovedForAll}."
      },
      "name()": {
        "details": "See {IERC721Metadata-name}."
      },
      "owner()": {
        "details": "Returns the address of the current owner."
      },
      "ownerOf(uint256)": {
        "details": "See {IERC721-ownerOf}."
      },
      "renounceOwnership()": {
        "details": "Leaves the contract without owner. It will not be possible to call `onlyOwner` functions anymore. Can only be called by the current owner. NOTE: Renouncing ownership will leave the contract without an owner, thereby removing any functionality that is only available to the owner."
      },
      "safeTransferFrom(address,address,uint256)": {
        "details": "See {IERC721-safeTransferFrom}."
      },
      "safeTransferFrom(address,address,uint256,bytes)": {
        "details": "See {IERC721-safeTransferFrom}."
      },
      "setApprovalForAll(address,bool)": {
        "details": "See {IERC721-setApprovalForAll}."
      },
      "supportsInterface(bytes4)": {
        "details": "See {IERC165-supportsInterface}."
      },
      "symbol()": {
        "details": "See {IERC721Metadata-symbol}."
      },
      "tokenURI(uint256)": {
        "details": "See {IERC721Metadata-tokenURI}."
      },
      "transferFrom(address,address,uint256)": {
        "details": "See {IERC721-transferFrom}."
      },
      "transferOwnership(address)": {
        "details": "Transfers ownership of the contract to a new account (`newOwner`). Can only be called by the current owner."
      }
    },
    "version": 1
  },
  "userdoc": {
    "kind": "user",
    "methods": {
      "claim()": {
        "notice": "Requests random number from Chainlink VRF function"
      }
    },
    "version": 1
  },
  "storageLayout": {
    "storage": [
      {
        "astId": 737,
        "contract": "contracts/CovidCats.sol:CovidCats",
        "label": "_name",
        "offset": 0,
        "slot": "0",
        "type": "t_string_storage"
      },
      {
        "astId": 739,
        "contract": "contracts/CovidCats.sol:CovidCats",
        "label": "_symbol",
        "offset": 0,
        "slot": "1",
        "type": "t_string_storage"
      },
      {
        "astId": 743,
        "contract": "contracts/CovidCats.sol:CovidCats",
        "label": "_owners",
        "offset": 0,
        "slot": "2",
        "type": "t_mapping(t_uint256,t_address)"
      },
      {
        "astId": 747,
        "contract": "contracts/CovidCats.sol:CovidCats",
        "label": "_balances",
        "offset": 0,
        "slot": "3",
        "type": "t_mapping(t_address,t_uint256)"
      },
      {
        "astId": 751,
        "contract": "contracts/CovidCats.sol:CovidCats",
        "label": "_tokenApprovals",
        "offset": 0,
        "slot": "4",
        "type": "t_mapping(t_uint256,t_address)"
      },
      {
        "astId": 757,
        "contract": "contracts/CovidCats.sol:CovidCats",
        "label": "_operatorApprovals",
        "offset": 0,
        "slot": "5",
        "type": "t_mapping(t_address,t_mapping(t_address,t_bool))"
      },
      {
        "astId": 79,
        "contract": "contracts/CovidCats.sol:CovidCats",
        "label": "nonces",
        "offset": 0,
        "slot": "6",
        "type": "t_mapping(t_bytes32,t_uint256)"
      },
      {
        "astId": 273,
        "contract": "contracts/CovidCats.sol:CovidCats",
        "label": "_owner",
        "offset": 0,
        "slot": "7",
        "type": "t_address"
      },
      {
        "astId": 380,
        "contract": "contracts/CovidCats.sol:CovidCats",
        "label": "_status",
        "offset": 0,
        "slot": "8",
        "type": "t_uint256"
      },
      {
        "astId": 2347,
        "contract": "contracts/CovidCats.sol:CovidCats",
        "label": "_idCounter",
        "offset": 0,
        "slot": "9",
        "type": "t_struct(Counter)2013_storage"
      },
      {
        "astId": 2357,
        "contract": "contracts/CovidCats.sol:CovidCats",
        "label": "keyHash",
        "offset": 0,
        "slot": "10",
        "type": "t_bytes32"
      },
      {
        "astId": 2359,
        "contract": "contracts/CovidCats.sol:CovidCats",
        "label": "fee",
        "offset": 0,
        "slot": "11",
        "type": "t_uint256"
      },
      {
        "astId": 2363,
        "contract": "contracts/CovidCats.sol:CovidCats",
        "label": "requestToSender",
        "offset": 0,
        "slot": "12",
        "type": "t_mapping(t_bytes32,t_address)"
      },
      {
        "astId": 2367,
        "contract": "contracts/CovidCats.sol:CovidCats",
        "label": "isClaiming",
        "offset": 0,
        "slot": "13",
        "type": "t_mapping(t_address,t_bool)"
      },
      {
        "astId": 2370,
        "contract": "contracts/CovidCats.sol:CovidCats",
        "label": "LINK_token",
        "offset": 0,
        "slot": "14",
        "type": "t_contract(IERC20)487"
      }
    ],
    "types": {
      "t_address": {
        "encoding": "inplace",
        "label": "address",
        "numberOfBytes": "20"
      },
      "t_bool": {
        "encoding": "inplace",
        "label": "bool",
        "numberOfBytes": "1"
      },
      "t_bytes32": {
        "encoding": "inplace",
        "label": "bytes32",
        "numberOfBytes": "32"
      },
      "t_contract(IERC20)487": {
        "encoding": "inplace",
        "label": "contract IERC20",
        "numberOfBytes": "20"
      },
      "t_mapping(t_address,t_bool)": {
        "encoding": "mapping",
        "key": "t_address",
        "label": "mapping(address => bool)",
        "numberOfBytes": "32",
        "value": "t_bool"
      },
      "t_mapping(t_address,t_mapping(t_address,t_bool))": {
        "encoding": "mapping",
        "key": "t_address",
        "label": "mapping(address => mapping(address => bool))",
        "numberOfBytes": "32",
        "value": "t_mapping(t_address,t_bool)"
      },
      "t_mapping(t_address,t_uint256)": {
        "encoding": "mapping",
        "key": "t_address",
        "label": "mapping(address => uint256)",
        "numberOfBytes": "32",
        "value": "t_uint256"
      },
      "t_mapping(t_bytes32,t_address)": {
        "encoding": "mapping",
        "key": "t_bytes32",
        "label": "mapping(bytes32 => address)",
        "numberOfBytes": "32",
        "value": "t_address"
      },
      "t_mapping(t_bytes32,t_uint256)": {
        "encoding": "mapping",
        "key": "t_bytes32",
        "label": "mapping(bytes32 => uint256)",
        "numberOfBytes": "32",
        "value": "t_uint256"
      },
      "t_mapping(t_uint256,t_address)": {
        "encoding": "mapping",
        "key": "t_uint256",
        "label": "mapping(uint256 => address)",
        "numberOfBytes": "32",
        "value": "t_address"
      },
      "t_string_storage": {
        "encoding": "bytes",
        "label": "string",
        "numberOfBytes": "32"
      },
      "t_struct(Counter)2013_storage": {
        "encoding": "inplace",
        "label": "struct Counters.Counter",
        "members": [
          {
            "astId": 2012,
            "contract": "contracts/CovidCats.sol:CovidCats",
            "label": "_value",
            "offset": 0,
            "slot": "0",
            "type": "t_uint256"
          }
        ],
        "numberOfBytes": "32"
      },
      "t_uint256": {
        "encoding": "inplace",
        "label": "uint256",
        "numberOfBytes": "32"
      }
    }
  }
}